:020000040800F2
:10000000700B00208D6600086D6500086F650008A4
:100010007165000873650008756500080000000040
:1000200000000000000000000000000077650008EC
:1000300079650008000000007B6500087D65000808
:10004000B7660008BB660008BF660008C366000804
:10005000C7660008CB660008CF660008D3660008B4
:10006000D7660008DB660008DF660008E366000864
:10007000E7660008EB660008EF660008F366000814
:10008000F7660008FB660008FF66000803670008C3
:100090008B6500088D6500089565000807670008F6
:1000A0000B6700080F670008136700081767000850
:1000B0001B6700081F670008236700082767000800
:1000C0002B6700082F6700083367000837670008B0
:1000D0003B6700083F670008976500084367000812
:1000E000476700084B6700084F6700085367000820
:1000F000576700085B6700085F67000863670008D0
:10010000676700086B6700086F670008736700087F
:10011000776700087B6700087F670008836700082F
:10012000876700088B6700088F67000893670008DF
:100130009767000800000000000000009B670008AF
:100140009F670008A3670008A7670008AB6700085F
:10015000AF670008B3670008B7670008BB6700080F
:10016000BF670008C3670008C7670008CB670008BF
:10017000CF670008D36700080000000000000000FF
:10018000D7670008DB67000881B000F5E0700268FF
:10019000914203D343681A44914202D380680028F5
:1001A000F5D101B07047DFF86817086890B94FF4CF
:1001B000805048604FF480324FF0FF308A60C86052
:1001C00008610420DFF84C27DFF84C374861C2F89B
:1001D000BC010B600120704701F1080313F0070F09
:1001E0000EBF0023C3F1080303F007031944D21A1A
:1001F0008161C26042F001034B60091D28238B50CE
:10020000DFF80C170A69C26170472DE9FC4B0746FD
:1002100001F1080010F0070F0FBF8946C0F1080078
:1002200000F0070001EB000902F1080111F0070FCF
:1002300006D002F10800C0F1080000F007000244F7
:100240001546A5EB090009EB0306A0EB030B43F0F1
:100250000303C9F80430AE4228BF01F0FFF9287942
:10026000C10758BF01F0FAF9BBF1100F38BF01F018
:10027000F5F9B869854207D1F8685844F860BE615D
:1002800040F00100706050E1786985420AD1B86899
:100290008344C7F808B07E614BF00100706046F8F7
:1002A0000BB042E1686800F00301012940F0AB8027
:1002B000C008C0000190C0081F2839D8AC68D5F824
:1002C0000C800090454508BF01F0C8F9A54208BF61
:1002D00001F0C4F968680099C008C000B0EBC10F14
:1002E00018BF01F0BBF9009907F1280000EBC1002D
:1002F000844206D03A699442C0F08080E168A94205
:100300007CD1A04506D100983968012282409143F2
:10031000396075E0804506D0386980456ED3D8F8DD
:100320000800A8426AD1C4F80C80C8F8084067E009
:10033000EC68D5F81880AC420CD0A86839698842BE
:1003400022D3C168A94204BFA168A9421CD1C460DC
:10035000A0601BE005F11402146834B905F1100225
:1003600014689CB101E01A46146804F1140319687A
:10037000002902BF04F1100318680028F3D139697D
:100380008A4228BF106001D201F068F9B8F1000F6D
:1003900036D0E96907F5987000EB81000268954254
:1003A00008D10460A4B9E8697968012282409143C8
:1003B000796025E03869804508D3D8F81000A84254
:1003C00014BFC8F81440C8F8104001E001F046F925
:1003D000B4B139698C4211D3C4F81880286928B1A6
:1003E000884226BF2061846101F038F9686938B11C
:1003F0003969884202D36061846101E001F02EF91D
:1004000001982D18834468684008400068604BF0EC
:10041000010171604FEADB0446F80BB01F2C23D8B2
:1004200007F1280000EBC4084546BBF1100F38BFA8
:1004300001F014F9386820FA04F1C90705D4012144
:1004400001FA04F404433C6007E0D8F80800396975
:1004500088422CBF054601F001F9C8F80860EE603B
:10046000B560C6F80C8060E05FEA1B2008BF002181
:1004700023D0B0F5803F28BF1F211ED2A0F5807287
:10048000120C02F008029040A0F58051090C01F016
:1004900004018840A0F580431B0CC2F10E0203F05A
:1004A0000203521AD21A984002EBD032D01D2BFA16
:1004B00000F101F0010101EB420107F5987202EB36
:1004C0008100F1610022726132617A6822FA01F3DF
:1004D000DB0707D4012303FA01F1114379600660B9
:1004E000B0611DE002681F291DBF4908C1F1190153
:1004F0000BFA01F1594600E002465068C008C000FE
:10050000584516D002F11003CC0F03EB84034900C9
:1005100018680028F0D13869834204D31E60B261A4
:10052000F660B66001E001F099F809F10800BDE855
:10053000F68B396990688A4228BF8842F3D3C66037
:100540009660B060F2600020B061EEE72DE9FE4FEA
:1005500004468B46A5692E46904699463146FFF7DC
:1005600013FEA8F128020168406801EB000AAAF115
:10057000270111F007000EBF0021C1F1080101F0B1
:1005800007010AEB0100A0F12F0706F110008742D6
:1005900038BF374607F118000190594600200090F7
:1005A0002046FFF719FE07F1080010F0070F18BFEB
:1005B00001F054F81B20786007F1080104F5E070A1
:1005C00090E80C5081E80C50C0F800B0C0F80480EE
:1005D000C0F80C9081600198009900E0001D07228E
:1005E0004260491C00F108025245F7D30129D8BFE7
:1005F00001F034F8B74200F09580BF1B301D311D6B
:10060000C05940084000C85147F0010171604FEAED
:10061000D70BF751BBF11F0F21D804EBCB0000F132
:100620002805A846102F38BF01F018F8206820FAD6
:100630000BF1C90705D4012101FA0BF10843206031
:1006400006E0A868216988422CBF804601F006F8C0
:10065000AE60C8F80C60C6F80880F5606FE0380A34
:1006600008BF002123D0B0F5803F28BF1F211ED234
:10067000A0F58072120C02F008029040A0F58051A3
:10068000090C01F004018840A0F580431B0CC2F165
:100690000E0203F00203521AD21A984002EBD03233
:1006A000D01D27FA00F101F0010101EB420104EB3A
:1006B0008102002302F59870F16173613361626811
:1006C00022FA01F3DB0707D4012303FA01F11143F6
:1006D00061600660B0611DE002681F291DBF490806
:1006E000C1F1190107FA01F1394600E002465068EC
:1006F000C008C000B84216D002F11003C80F03EBC7
:100700008003490018680028F0D12069834204D38F
:100710001E60B261F660B56011E003B0BDE8F04F55
:1007200000F09CBF0BE0216990688A4228BF884294
:10073000F3D3C6609560B060F2600020B06103B092
:10074000BDE8F08F2DE9F041714F054638688846C5
:1007500008B9FFF728FDB96801EB08002F30491EE2
:1007600020EA010188457DD205F5D876B06828B128
:10077000326889188A4275D2884273D300F080FFAC
:1007800001001CBF0C6811F1010F6BD030682018FC
:1007900005F5D87230605368984238BF18467060CB
:1007A000A86960BB286908B1814200D22961316122
:1007B00074610020F06105F12802386868624FF02A
:1007C000FF3028620020D260926002F1080353617A
:1007D0001361801C10322028F5D34E48854208BF93
:1007E000A4F1280228D055F8040CC00805EBC0027B
:1007F000A2F108000A19121A283A01461CE005F570
:10080000E070024600E092687AB3136857683B4490
:100810009942F8D1137B1F0727D4AB691768BB42F5
:1008200023D3D2F804C06744BB421ED2A444C2F80A
:1008300004C0E868A96922182846FFF7CDFC1FE02C
:100840008068C0B103689342FAD1027B130712D4C7
:10085000026801604368E418446043462846BDE8E6
:10086000F041D2E40020BDE8F0812A69914238BF0E
:1008700029610A19E5E7002322462846FFF766FEAC
:10088000E8688045EED2A0EB0800A969E86001EBBA
:100890000802AA6140F00100506048F0030048607F
:1008A00001F10800BDE8F08138B4194B1A6882B92B
:1008B0004FF480525A604FF480344FF0FF329C6006
:1008C000DA601A610422134C134D5A61C4F8BC213A
:1008D0001D6011F1400F17D28269AAB1C368283197
:1008E00099420BD200F5E0710C68A24203D34D6827
:1008F0002C44A24202D389680029F5D1C1699942EA
:100900003CBF4FF0FF31C16132BC00207047000096
:1009100030070020980100206859883C2DE9F84FE5
:1009200000258946090AC9F1000B08BF002323D01E
:10093000B1F5803F28BF1F231ED2A1F58072120C93
:1009400002F008029140A1F580531B0C03F0040350
:100950009940A1F58044240CC2F10E0204F0020477
:10096000D21A121BA14002EBD132D11D29FA01F398
:1009700003F0010303EB4203074607F5987858F8A4
:10098000230030B31F2B0FBF4C465C08C4F1190481
:1009900009FA04F4AC46594600E064004268D20803
:1009A000D200A2EB09028A4203D21100054600F0F0
:1009B0006881426910304FEAD47B50F82B00002A3E
:1009C0001CBF824294460028E7D18B466046B0BBEC
:1009D000BDBB012000FA03F35B0058420343786873
:1009E000034000F04D81584203405B1E180B00F09D
:1009F0001000C340590901F00801CB409A0802F0E9
:100A00000402D3405C0804F002040818E340101804
:100A1000C3F3400620183044F3401B1858F8230055
:100A20000DE008464168C908C900A1EB0901594514
:100A30003CBF8B46054601690029F2D14069002878
:100A4000F0D1002D00F01C81B868A0EB09008345AF
:100A500080F0168138698542C0F010816868C0084E
:100A6000C00009EB0B01884218BF00F0F7FD05EB51
:100A70000906B54280F00281EC68D5F818A0AC42B6
:100A80000CD0A8683969884222D3C168A94204BF42
:100A9000A168A9421CD1C460A0601BE005F114024A
:100AA000146834B905F1100214689CB101E01A46CB
:100AB000146804F114031968002902BF04F110033B
:100AC00018680028F3D139698A4228BF106001D222
:100AD00000F0C4FDBAF1000F36D0E96908EB8100DF
:100AE0000268954209D10460200014D1E869796850
:100AF000012282409143796026E03869824508D31B
:100B0000DAF81000A84214BFCAF81440CAF810401E
:100B100001E000F0A3FDBCB13869844212D3C4F8EF
:100B200018A0286930B13969884226BF20618461E4
:100B300000F094FD686938B13969884202D3606178
:100B4000846101E000F08AFDBBF1100F0CD2D944A2
:100B500049F003006860291D281D50F8090040F085
:100B6000010041F8090088E049F0030068604BF09B
:100B7000010070604FEADB0046F80BB01F281DD85B
:100B800007EBC00101F12804396821FA00F2D2070D
:100B9000A34605D4012202FA00F00843386006E0BB
:100BA000A068396988422CBF834600F057FDA660D3
:100BB000CBF80C60C6F808B0F4605EE05FEA1B207A
:100BC00008BF002123D0B0F5803F28BF1F211ED2CF
:100BD000A0F58072120C02F008029040A0F580513E
:100BE000090C01F004018840A0F580431B0CC2F100
:100BF0000E0203F00203521AD21A984002EBD032CE
:100C0000D01D2BFA00F101F0010101EB4201F1616D
:100C100000227261326108EB81007A6822FA01F3E6
:100C2000DB0707D4012303FA01F111437960066061
:100C3000B0611DE002681F291DBF4908C1F11901FB
:100C40000BFA01F1594600E002465068C008C000A6
:100C5000584518D002F11003CC0F03EB8403490070
:100C600018680028F0D13869834204D31E60B2614D
:100C7000F660B66001E000F0F1FC13E100F0EEFC7C
:100C80000DE18B46A3E6396990688A4228BF884205
:100C9000F1D3C6609660B060F2600020B061ECE70E
:100CA0002DE9F84F06468846716848420140491EC2
:100CB000080B00F01000C1404A0902F00802D140C0
:100CC0008B0803F00403D9404D0805F00205101805
:100CD000E9401818C1F34004281806F5987A204412
:100CE000E14009185AF821104868C008C0000D46B4
:100CF000A0EB080909E001464868C008C000A0EB65
:100D0000080048453CBF81460D4608690028F2D1DD
:100D100049690029F0D130698542C0F0BE80686819
:100D2000C00808EB090BC000584518BF00F096FC3E
:100D300005EB08008542009080F0AF80EF68AC6959
:100D4000AF420CD0A8683169884222D3C168A94259
:100D500004BFB968A9421CD1C760B8601BE005F1A7
:100D60001402176837B905F1100217689FB101E046
:100D70001A46176807F114031968002902BF07F122
:100D8000100318680028F3D131698A4228BF106027
:100D900001D200F063FC002C31D0E9690AEB81003C
:100DA0000268954208D107608FB9E869716801222D
:100DB00082409143716022E03069844205D320690A
:100DC000A84214BF6761276101E000F047FCB7B19A
:100DD0003069874211D3BC61286930B131698842DA
:100DE00026BF3861876100F039FC686938B1316924
:100DF000884202D37861876101E000F02FFCB9F1ED
:100E0000100F0BD24BF003006860291D281D50F80D
:100E10000B0040F0010041F80B003DE048F00301F9
:100E2000696049F00100291D41F80800009840F868
:100E30000990D6F808804FEAD80BBBF1200F28BFE5
:100E400000F00CFCB8F1000F22D006EBCB00776964
:100E500000F12804A246B8F1100F38BF00F0FEFBE5
:100E6000306820FA0BF1C90705D4012101FA0BF112
:100E70000843306006E0A068316988422CBF824692
:100E800000F0ECFBA760CAF80C70C7F808A0FC6083
:100E9000C6F808900098706104E000F0DFFB0020C5
:100EA000BDE8F28F05F10800BDE8F28F2DE9FE4F95
:100EB0000546AFF30080F52DDFF89C6780F00481D4
:100EC0000B2D31BF10250B35ED08ED003068EC0817
:100ED000E04010F0030F46D0C04300F001000419B9
:100EE00006F1280000EBC408E700D8F8085068684D
:100EF000C008C000B84218BF00F0B0FBD5F8089099
:100F0000454508BF00F0AAFB4D4508BF00F0A6FB11
:100F10006868C008C000B84218BF00F09FFBC84511
:100F200007D13168012000FA04F421EA0404346096
:100F30000DE03069814508D3D9F80C00A84204D1EE
:100F4000C8F80890C9F80C8001E000F087FB47F072
:100F500003006860291D281D05F10804C05940F0F0
:100F60000100C851F8E0B168A94280F0BE800028B5
:100F700000F0A1804FF0010808FA04F1490000FADE
:100F800004F4484201430C4060420440641E200BBC
:100F900000F01000C440610901F00801CC40A20833
:100FA00002F00402D440630803F002030818DC4096
:100FB0001018C4F3400718183818FC40241806F11C
:100FC000280000EBC40AE700DAF80890D9F804001A
:100FD000C008C000B84218BF00F040FBD9F808B004
:100FE000D14508BF00F03AFBD94508BF00F036FBF9
:100FF000D9F80400C008C000B84218BF00F02EFBAA
:10100000DA4506D1316808FA04F421EA04043460B0
:101010000DE03069834508D3DBF80C00484504D166
:10102000CAF808B0CBF80CA001E000F017FB45F0BF
:101030000300C9F804007F1B09F1040147F0010017
:10104000485109EB05000190C751B4684FEAD40A32
:10105000BAF1200F28BF00F001FB34B3CDF800A097
:1010600006F12800756900EBCA0AD346102C38BF78
:1010700000F0F4FA3168009821FA00F2D30704D4A2
:1010800008FA00F00843306007E0DAF80800316938
:1010900088422CBF834600F0E1FACAF80850CBF82A
:1010A0000C50C5F808B0C5F80CA0B76009F10804E9
:1010B0000198706150E07068C0B329463046FFF770
:1010C000EFFD040011D047E015F1400F28BF4FF0AD
:1010D000FF350AD20B35ED087068ED0028B12946BE
:1010E0003046FFF71BFC040036D1B068A8421DD380
:1010F000411B726910290AD350197061B16041F027
:1011000001034360415045F0030555600BE00021A9
:10111000B1607161131D40F003015160111D095848
:1011200041F00101195002F1080415E0F068854210
:101130000DD2401BB169F0604A19B26140F0010064
:10114000506045F003054D6001F1080404E02946B4
:101150003046FFF7F7FA0446AFF300802046FFF76A
:10116000EEBA002800D170472DE9FC47A0F1080530
:10117000AFF30080DFF8E06432699542C0F0598235
:10118000686800F00301012900F05382C1084FEAAA
:10119000C109C10705EB090839D42C6810F0030F09
:1011A00000F04982604205449542A144C0F041826A
:1011B0007069854200F0C780E408202C5ED2D5F823
:1011C0000CA0AF68554508BF00F048FABD4208BF03
:1011D00000F044FA6868C008C000B0EBC40F18BF44
:1011E00000F03CFA06F1280000EBC400874205D06D
:1011F00031698F423FD3F968A9423CD1BA452CD11D
:101200003068012101FA04F420EA04043460454501
:1012100080F00F82D8F80440E00740F10A82A0076E
:1012200000F16881B069804540F0A080F068B56148
:101230008144C6F80C9049F00100686070698542ED
:1012400002D100207061B060F069484580F0F38100
:1012500000213046FFF728FBEDE1824506D03069DA
:10126000824508D3DAF80800A84204D1C7F80CA0D8
:10127000CAF80870CBE700F0F1F9C8E7EC68AF698D
:10128000AC420BD0A868904223D3C168A94204BFE6
:10129000A168A9421DD1C460A0601CE005F114033F
:1012A0001C6834B905F110031C68A4B101E0634661
:1012B0001C6804F1140CDCF80010002902BF04F1D2
:1012C000100CDCF800000028F1D1934228BF19600F
:1012D00001D200F0C3F9002F99D0E96906F59870A2
:1012E00000EB81000268954209D10460200011D111
:1012F000E8697168012282409143716087E7306933
:10130000874205D33869A84214BF7C613C6101E083
:1013100000F0A4F9002C3FF47AAF31698C42AAD3D3
:10132000A761286928B1884226BF2061846100F046
:1013300095F9686900283FF46AAF316988429AD309
:101340006061846163E798F8040000F003000328FB
:101350007FF45DAFC6F8089049F00101D8F80400A9
:1013600040084000C8F8040069600AE070698045E0
:101370000AD1B06875618144C6F8089049F001004F
:10138000686045F8099056E1E408E400A144E408E7
:10139000202C3AD2D8F80CA0D8F80870D04508BF55
:1013A00000F05CF9B84508BF00F058F9D8F804001F
:1013B000C008C000B0EBC40F18BF00F04FF906F131
:1013C000280000EBC400874207D031698F42C0F08B
:1013D0008480F968414540F08080BA4507D1306883
:1013E000012101FA04F420EA0404346077E0824524
:1013F00006D031698A4570D3DAF8080040456CD1CF
:10140000C7F80CA0CAF8087069E0D8F80C40D8F802
:10141000187044450DD0D8F808003169884222D3AD
:10142000C168414504BFA16841451CD1C460A060AA
:101430001BE008F11402146834B908F110021468B2
:101440009CB101E01A46146804F1140319680029DC
:1014500002BF04F1100318680028F3D131698A42F1
:1014600028BF106001D200F0F9F8002F37D0D8F86B
:101470001C1006F5987000EB8100026890450AD1B7
:101480000460200012D1D8F81C007168012282404B
:101490009143716023E03069874205D33869404544
:1014A00014BF7C613C6101E000F0D8F8BCB1316947
:1014B0008C4212D3A761D8F8100028B1884226BF09
:1014C0002061846100F0CAF8D8F8140038B131699D
:1014D000884202D36061846101E000F0BFF849F006
:1014E0000100686045F80990706985420BD1C6F823
:1014F0000890A0E064086400C8F8044049F00100C6
:10150000686045F809904FEAD907202F22D206F1EA
:10151000280000EBC704A046B9F1100F38BF00F057
:101520009DF8306820FA07F1C90705D4012101FAB6
:1015300007F70743376006E0A068316988422CBF8F
:10154000804600F08BF8A560C8F80C50C5F80880FC
:10155000EC6070E05FEA192008BF002123D0B0F5ED
:10156000803F28BF1F211ED2A0F58072120C02F00E
:1015700008029040A0F58051090C01F00401884058
:10158000A0F580431B0CC2F10E0203F00203521AB5
:10159000D21A984002EBD032D01D29FA00F101F0A6
:1015A000010101EB420106F5987202EB8100002275
:1015B0006A612A61E961726822FA01F3DB0707D4E4
:1015C000012303FA01F1114371600560A8611DE078
:1015D00002681F291DBF4908C1F1190109FA01F16B
:1015E000494600E002465068C008C000484526D081
:1015F00002F11003CC0F03EB8403490018680028A4
:10160000F0D13069834204D31D60AA61ED60AD6002
:1016100001E000F023F8306A401E30620BD1D6F8AA
:10162000C80100E080680028FCD14FF0FF30306234
:1016300001E000F013F8AFF30080BDE8F3873169F3
:1016400090688A4228BF8842E3D3C5609560A8604D
:10165000EA600020A861DEE798010020012000F088
:1016600025B8B1F5807F02D34FF0FF30704701708D
:10167000012070470078401E8041C043C00F704772
:101680000749086808B1002070470648C008C00034
:1016900008600549C908C900091A0160704700BF00
:1016A00068070020770B0020700D002080B5AFF395
:1016B0000080024A11001820ABBEFBE726000200A2
:1016C0002DE9F84F74A7A2B0D7E90045CDE9004550
:1016D0002C9EDFF8307C04918DF843605FF00001B0
:1016E0006FA40D9112944FF0FF36824690469946B2
:1016F0000FE0C3462C461BF8011B0498D047002876
:10170000049000F0B2800D98401C641E0D90F2D140
:10171000A84498F80000252807D1002107910891D6
:1017200009910A910B910C910DE06A4631464046B1
:1017300000F0CEFF050001D10D98B5E0D9D5012507
:10174000E6E741F0010118F8010F2028F9D023281D
:101750000CD02B2804D02D2805D0302809D086E0C5
:1017600041F00201EFE741F00401ECE741F008012C
:10177000E9E741F01001E6E700200F900AE00F983A
:10178000B84205DA00EB800302EB4302303A0F92D5
:1017900008F1010898F80020A2F130000A28EED3E1
:1017A00098F800002E2818BF0E9629D118F8010FBE
:1017B0002A280BD1D9F80000C9F8000008F1010867
:1017C00050F8042BC9F800000E9219E02D280CBF28
:1017D00018F8010B002000220E920BE040B90E9A7F
:1017E000BA4205DA02EB820403EB4403303B0E936A
:1017F00008F1010898F80030A3F130020A2AEDD36D
:10180000ADF84010129898F8001000F06BFF08B186
:1018100018F8010B8DF842009DF84200682804BFBB
:1018200098F80010682903D162208DF8420008E082
:101830006C2804BF98F800006C2804D171218DF841
:10184000421008F1010813A806904A4618F8013B17
:1018500002A9504600F068F838B913AA02A9504608
:1018600000F0CAF900287FF554AF30461CE02A2862
:1018700082D1D9F80020C9F8002052F8040BC9F829
:10188000002000280F9003D540420F9041F0040142
:1018900008F1010884E700000000000000000000DB
:1018A000686A6C747A4C000023B0BDE8F08F62283F
:1018B00020D0682811D06A2803D06C2827D071283E
:1018C00025D10868C01D20F007000860D0E900237A
:1018D00008300860194610467047002A0A680A60F6
:1018E000106803D0121D0A6000B217E0121D0A60D2
:1018F00080B217E0002A0A680A60106803D0121D3F
:101900000A6040B20AE0121D0A60C0B20AE0002A72
:101910000A680A60106803D0121D0A60C117704778
:10192000121D0A60002170477CB50D4611461C4609
:101930002E69B4F1250200F04D811C3A00F086803A
:10194000121F022A40F282800E3A00F00781521FD5
:101950005AD0093A7AD0921E16D0521E35D0521E55
:10196000022A73D9121F30D0521F00F09A80521EE3
:101970004AD0521E00F0E480D21E00F0FD80921E7C
:1019800042D0D21E40D02BE195F83A206C2A09D0E3
:101990006869421C6A610A680A6052F8043B0A607E
:1019A000335427E10A680A6052F8043B0A600021B8
:1019B000009301914FF0FF322A6329466A4600F0F6
:1019C00096F9002840F1168101E195F83A000122CC
:1019D000FFF76DFFC5E900010023994204DA686949
:1019E000411C69612D210DE0288F810704D56869AC
:1019F000411C69612B2105E0C00722D56869411CA3
:101A00006961202131541CE095F83A000022FFF76B
:101A10004EFFC5E9000195F83800010711D5D5E959
:101A200000230020834208BF82420AD044F02000F5
:101A3000782806D1686930213154401C411C696105
:101A40003454214668693044E86083E00868C01D6A
:101A500020F007000860D0E9002308300860C5E9DD
:101A60000023D5E90001C80F04D06869411C6961F1
:101A70002D210DE0288F810704D56869411C69611B
:101A80002B2105E0C00704D56869411C696120214C
:101A9000315468693044E8602146284600F032FA43
:101AA000A8E005F13A02507820B14FF0FF340FF66C
:101AB000243070E01078622808D0682824D06A2882
:101AC00012D06C282ED071280ED02BE00A680A6044
:101AD00052F8040B0A6020B94FF0FF340FF60C30B7
:101AE00059E0E96A017085E00A680A6052F8040B5F
:101AF0000A6020B94FF0FF340FF6F0204BE0EA6A9D
:101B0000D317C0E9002375E00A680A6052F8040B95
:101B10000A6020B94FF0FF340FF6D0203BE0E96AAD
:101B2000018067E00A680A6052F8040B0A6020B975
:101B30004FF0FF340FF6B4202DE0E96A016059E060
:101B40000A680A6052F8040B0A600021C5E9000126
:101B5000EE607821284600F029F94BE06C2285F8E8
:101B60003A200B680B6053F8042B0B6052BB4FF00C
:101B7000FF340FF6AC200EE095F83A206C2AF0D036
:101B80000868086050F8044B0860EC603CB94FF0FE
:101B9000FF340FF6702000F0B1FD201A76BD2E6BD9
:101BA000002E04D5204600F0C9FD044608E0324668
:101BB0000021204600F0DEFD002814BF041B34463F
:101BC000AC6117E0294600F092F8002812D54FF0DA
:101BD000FF3076BD6869411C69612521315409E0F7
:101BE0006969481C686125227254210002D0411C99
:101BF00069613454002076BD2DE9F0410E4605465A
:101C0000716B7069B46A091A306A091AB069091AE5
:101C1000706A091AF069091A96F838000C1B410716
:101C200090460DD4002C0BDD2746B0682021A84734
:101C30000028B06057D0F06A401C7F1EF062F4D1DB
:101C4000736942463146284600F0ACFC00284AD170
:101C5000376A002F0ADDB0683021A8470028B0603D
:101C600041D0F06A401C7F1EF062F4D1B369F26883
:101C70003146284600F096FCA8BB776A002F09DDA4
:101C8000B0683021A847B06068B3F06A401C7F1E7E
:101C9000F062F5D1F068B169F3694218314628461F
:101CA00000F080FCF8B9B76A002F09DDB068302178
:101CB000A847B060B8B1F06A401C7F1EF062F5D151
:101CC00096F8380041070BD5002C09DDB0682021BB
:101CD000A847B06038B1F06A401C641EF062F5D1CC
:101CE0000020BDE8F0814FF0FF30BDE8F0812DE924
:101CF000F8470D46A3B02F6B002F8146904648BF92
:101D00006FF0004700F062FD696B40180FF62C1170
:101D10008128D1E90023CDE9012328BF4FF0FF300E
:101D20003ED20024002F2FDDD8F8001001AA68460B
:101D300000F0D0FC0646002E35D4D8F8000008B9D3
:101D4000761E30D4B7421FDB6869301881280AD369
:101D50000020686303AA29464846FFF74DFF0400A8
:101D600012D40020686103A8D5F814A03246694651
:101D7000504400F031FDB244C5F814A058F8040BEB
:101D8000002818BFBF1BCDD12CB903AA294648464D
:101D9000FFF732FF044614B90020686168632046EB
:101DA00024B0BDE8F0874FF0FF34F8E72DE9FC4799
:101DB00007468A463E69BAF16F0F08BF082405D06E
:101DC0004AF02001782914BF0A2410243C25D7E9C1
:101DD0000023BAF1640F18BFBAF1690F9046994613
:101DE00006D100218B4203DAD8F1000869EB4909DA
:101DF0000020814508BF80451FD1386BE8B9082C09
:101E00004CD197F83800010748D530203B2586F89B
:101E10003B0043E000280ED597F8380000F014008E
:101E2000102808D17A6B7869121A386A121A511A76
:101E30000029C8BF3962BDE8F3878DF800A040468D
:101E400049462246E31700F01BFD3032D0B26D1E2A
:101E50003A28019504DB9DF80000A0F151018A1891
:101E60007255404649462246E31700F009FD804678
:101E700089460020814508BF804503D0F868711964
:101E80008842DCD3082C09D197F83800010705D522
:101E9000715D302902D06D1E30207055C5F13C01B6
:101EA000B9617019F860386B8142B3DA411A39624E
:101EB0004FF6EF70398F01403987BDE8F3872DE980
:101EC000D04306460F4614464FF00008DFF838941A
:101ED00012E0E00707D542464B463046394600F04F
:101EE000E7FD06460F464046494642464B4600F04F
:101EF000DFFD641080468946002CEAD13046394621
:101F0000BDE8D0832DE9F34F054641F020048DB0A4
:101F1000D5E90089612C02AE09D0286B002848BFA2
:101F2000062003D408BF672C01D101202863D5E91E
:101F3000002358004015401C0ED119030CD003207B
:101F4000A8619DF8380061381A2802D20FF2F461B6
:101F500011E00FF2F4610EE058004015401C0FD163
:101F600019030DD10320A8619DF8380061381A28A3
:101F700014D30FF2DC61E868032200F02DFCD3E1FA
:101F8000194621F00043B3F5801F10460DD20027FB
:101F9000BB4208BFBA42019703D111E00FF2AC6116
:101FA000E9E701AA00F056FE0AE0DFF8607307EBEC
:101FB0001352DFF85C3301921940DFF858331943AC
:101FC000C5E90001612C0ED1E86830210170811C47
:101FD000E9609DF8381061290CBF782158214170C3
:101FE0006869801C6861D5E900AB2BF000430020D4
:101FF0002AF00002834204BF8242002300F05A818B
:10200000612C40F0A980286B00284CBF2120401C87
:1020100000904046009F7F1C49460022002300F0AC
:1020200051FED94601988DF8082038BF89F0004943
:10203000001F0190002FD0460DF1090040F34981A7
:1020400040F2FF71DFF8D0B20C9106464046494697
:102050000022002300F04EFE80F03A814800400D3F
:1020600000F11C0210D0002A0EDD0C98824205DB24
:1020700009F0004040EA0B01002013E0A4480840AA
:1020800040EA025140460DE029F00043002028F0CC
:102090000002834208BF82420FBF40461C224046D6
:1020A00000F040FE8046894600F0DAFEFF1F002F58
:1020B000044609DD00F0F2FE02460B464046494662
:1020C00000F0FEFE80468946F01D072104E004F082
:1020D0000F0200F8012D2411002C01DD491EF6D558
:1020E000491E5CBF002200F8012DF9D5ECE000206C
:1020F000194602AA0A4400E05B1E12F80149491E73
:102100008442F9D00F2804D10DF10900425C521C21
:102110004254002904D50198001D02AE5B1C0190B9
:10212000591E12D49DF838007218147804F1300842
:102130005FFA88F4392CC4BFA0F13A04A044491EC8
:1021400002F80189F1D58DF83800286B002840F19C
:10215000B080591E2963ACE0404649460022002366
:1021600000F0B0FD019938BF89F0004947F297505F
:1021700041436A4A91FBF2F20192D2F1070204DD77
:1021800040464946FFF79BFE0AE052420020644960
:10219000FFF795FE02460B464046494600F002FF17
:1021A0008046662C286BDFF87CB106BF019F0A379A
:1021B00006273F18142FC8BF142730208DF80800B9
:1021C00089460DF1090000E03046002F34DD064657
:1021D0004046494601F00AF801460A4606F108035E
:1021E00004200A26B2FBF6F606EB860EA2EB4E02A0
:1021F000303203F8012C0A22B6FBF2F202EB820E17
:10220000A6EB4E063036401E03F8026DE9D1083FBA
:10221000002F03F10806D7DD084600F0FBFF024659
:102220000B464046494600F04BFE00225B4600F05C
:102230003FFC80468946CBE70DF10901401A0DF1BC
:10224000090604E00199491E401E0191761C31786F
:102250003029F7D0662C02D10199491C03E0652C86
:102260000CBF012100212B6BCB189842B8BF431E35
:10227000002B1ED4834204DAF05C3528A8BF392035
:1022800000DA30201946721E02EB010800E05B1EE6
:1022900018F80199491E8145F9D0392802D1705C9E
:1022A000401C7054002904D50198401C16465B1C44
:1022B0000190019800B200901BB29DF83810324690
:1022C000284600F035F82FE0C61D002F3FF7BEAEC0
:1022D00030460DF10901401A009903468842C8BFF3
:1022E0000B46002B0DF109063FF52FAF8342BFF6D9
:1022F000FEAE0DF10900C05C07287FF7F8AE0F2095
:10230000F6E60000CBCCCC0C0000244002FCFFFF22
:10231000FFFF0F800000E03F0000F07FA08601007B
:102320000000F03F84D797410FB0BDE8F08F000068
:102330002DE9F84783B006468A461746984600F0CE
:10234000CBF9B8F1000F406A356B90F8009002DCD1
:102350004FF00108BFA7BDF930404AF020006628C1
:1023600008BF641C15D0672840F0848014F1040F66
:10237000C0F28680AC4280F2838096F83800641CFC
:10238000010702D4A845B8BF454620B22D1A48BF60
:1023900000250FFA84FAF068B169BAF1000F25DC64
:1023A0004A1C30234354002D03DC96F83800010703
:1023B00003D5F06800F80290521C15EB0A0FB8BF65
:1023C0006C4220B2441941424445B8BFA046B261B4
:1023D00071620FFA88F5F561F068B3692A463946EB
:1023E000184400F0F9F9641BB462C4E022B29045CD
:1023F000084417DA4246394600F0EEF9B069404425
:10240000B061AAEB0801002D716203DC96F8381068
:102410000A0705D5F16801F80090F069401CF061E9
:10242000B562A8E0394600F0D7F9B069002D5044F4
:10243000A8EB040803DC96F838100A0703D5F16806
:1024400001F80090401CB0610FFA88F08542F068F6
:10245000B369B8BFA8460FFA88F207EB0A0118441F
:1024600000F0BAF9B0690FFA88F10844B061681A4F
:10247000706280E0BAF1610F14D14FF0700A16E07B
:10248000A84504DA96F838100A0758BF45466D1E6D
:1024900048BF0025BAF1670F14BF4FF0450A4FF04F
:1024A000650A04E0BAF1410F08BF4FF0500AB16964
:1024B000F368481CB061002D17F8012B5A5403DC57
:1024C00096F838100A071BD5F168431CB36101F870
:1024D0000090002D14DDA8F101080FFA88F0854264
:1024E000F068B8BFA8460FFA88F23946184400F0E1
:1024F00073F9B0690FFA88F108446D1AB06175621A
:10250000F068B1690844002C80F800A003D42B21A6
:102510004170811C03E02D2141706442811C002028
:102520006A460AE023460A2493FBF4F404EB84058C
:10253000A3EB450302F8013B401C24B2002CF1DC64
:10254000012806DC4AF02002652A04BF302201F887
:10255000012B48B9302001F8010B07E0401E1DF89F
:102560000020303201F8012B0028F7DCF068B26956
:102570001044091AF16196F8380000F01400102890
:102580000DD17169B0694118706A4118F06941183C
:10259000B06A4118706B8142BCBF411A316204B00D
:1025A000BDE8F087F8B505460E4617461C460020E4
:1025B00074B117F8011BB068A847B06030B1F06A79
:1025C000401CF0620020641EF3D1F2BD4FF0FF30DA
:1025D000F2BD00007072696E74665F733A20256EFA
:1025E00020646973616C6C6F776564007072696EEA
:1025F00074663A2062616420256E20617267756D91
:10260000656E74007072696E74665F733A20626101
:102610006420257320617267756D656E740000001B
:102620007072696E74665F733A2062616420256C13
:102630007320617267756D656E74000000000000A4
:10264000000000006E616E004E414E00696E660033
:10265000494E460030008268521C8260426832B1A6
:102660000268531C036011704168491E4160704745
:102670001A48704730B45368D418042B09DA41B1B2
:10268000057804F8015B10F8015B15B15B1C491E6D
:10269000F3E7536030BC704738B514461D4661B14E
:1026A000FFF7E8FF61686A6B204690476FF0010210
:1026B000811A02D0491E03D005E06FF0010032BD3F
:1026C0004FF0FF3032BD0021616032BDDA6B104740
:1026D000024BE1E7014BF9E7014870475001002048
:1026E000180100200278C9B28A421AB11CBF10F842
:1026F000012FF9E718BF00207047000080B500B92E
:1027000006A005490B681BB122220021984701E071
:10271000FEF7A4FF222002BD6C070020636F6E73DA
:10272000747261696E742068616E646C65723A20BF
:10273000626164206D6573736167650000F1010378
:10274000810704D010F8011B89B18107FAD1026812
:10275000B2F10131914311F0803F04BF50F8042FD2
:10276000F6E710F8011B11B110F8011BFBE7C01AC6
:1027700070470000C9B2830706D0521E22D310F85A
:10278000013B9942F7D11FE0083A13D302F104024A
:1027900041EA012141EA014150F8043B121F21BFE7
:1027A0004B40A3F1013C2CEA030C1CF0803FF3D01A
:1027B000C9B2001F083210F8013B521E28BF91EA2F
:1027C000030FF8D818BF0120401E704780B5FFF7EF
:1027D0004FFF006C02BD000062B38B0708D0521E91
:1027E00011F8013B00F8013B00F024808B07F6D183
:1027F000830740F0208000BF103A07D330B4B1E81F
:102800003810103AA0E83810F9D230BC530724BF72
:10281000B1E80810A0E8081044BF51F8043B40F8A4
:10282000043BD20724BF31F8022B20F8022B44BF0F
:102830000B7803707047121F17D35B0009D151F852
:10284000043B20F8023B1B0C121F20F8023BF6D27F
:102850000BE051F8043B00F8013B1B0A20F8023B57
:102860001B0C121F00F8013BF3D238BF121D521E81
:1028700024BF11F8013B00F8013BF8D87047000075
:10288000B3BBD9B1B2F5803F7DD2022A1ED98C46A6
:10289000B1FBF2F102FB11C31B0443EA1043B3FB8B
:1028A000F2FC02FB1C3380B240EA0343B3FBF2F0BC
:1028B00002FB103240EA0C4000237047022A05D97F
:1028C0008446B0FBF2F002FB10C270474AB105D15A
:1028D00000F0010249085FEA30007047002200233F
:1028E000704700F0A5BC0B000200002100207047DB
:1028F000904271EB030CF6D3B3F5803F2FD2F0B5C5
:10290000B3FA83F7B1FA81F4A7F10F0E3D1B5340E0
:10291000CEF1200602FA0EF2F3415340B5F10F0753
:1029200046D80F3C2C444140C4F12006A040F14160
:102930004140B1FBF3F603FB1611A2FB0645001B59
:10294000A94102D2761E8018594180EA010221FA7B
:102950000EF362FA0EF200215A403046F0BD30B458
:10296000B1FBF3FC03FB1C11A2FB0C45001BA941AE
:1029700003D2ACF1010C8018594130BC02460B4621
:10298000604600217047B2F1807F65D3F0B5B2FA9E
:1029900082F7B1FA81F4C7F10F063D1B22FA06F364
:1029A00007F1110EF24120355A40B5F10F07B8D9A1
:1029B0004140C4F12006A040F1414140B1FBF3FC8D
:1029C00003FB1C11A2FB0C45001BA94103D2BCF167
:1029D000010C801859410F2F12D30F3FC90341EA50
:1029E0005041B1FBF3F603FB1611A2FB0645D4EBF5
:1029F000C030A94102D2761E8018594146EACC3C2B
:102A000007B34140C7F12006B840F1414140B1FB56
:102A1000F3F603FB1611A2FB0645001BA94102D2E7
:102A2000761E8018594180EA010221FA0EF3C7F19F
:102A3000200462FA0EF20CFA07F05A402CFA04F164
:102A40003043F0BD80EA010221FA0EF3002162FA60
:102A50000EF260465A40F0BD8C46B1FBF2F102FB2B
:102A600011C31B0243EA1063B3FBF2FC02FB1C33ED
:102A70001B024CEA002043EA1063B3FBF2FC02FBAA
:102A80001C331B024CEA002043EA1063B3FBF2FC48
:102A900002FB1C331B024CEA002043EA1063B3FB29
:102AA000F2FC02FB1C324CEA0020002370470000BD
:102AB000B0B581EA030C0CF0004C40F2FF7515EA4A
:102AC00011541DBF15EA1357AC42AF4239E0E41967
:102AD00023EA455343F48013C90241F0004141EA1F
:102AE000505EC7021100A7FB020200284FF0000051
:102AF000EEFB01204FF00001E3FB072118BF42F07D
:102B00000102401800214941E3FB0E01A4F5806455
:102B10000F0302D252004041494154F101046CDDDF
:102B2000470872F1004250F1000051EB0451A1F549
:102B300080115CBF41EA0C01B0BD4CEA0551002098
:102B4000B0BD05EA1357AC4214BFAF4241E050EAB2
:102B5000410E1CBF52EA430E02E061460020B0BDA8
:102B600024423C441BD15FEA070EF6D0090302BFA2
:102B700001460020AEF1140EB1FA81F7AEEB070466
:102B800001FA07FE0C37C7F1200100FA07F7C84029
:102B90004EEA000E23EA455343F48013A2E733F0D4
:102BA0000043B3FA83F704BFB2FA82FE77440B3FC7
:102BB000E41BB7F1200E2FBF02FA0EF3BB40C7F1A2
:102BC000200E22FA0EFE38BF43EA0E03BA40641C00
:102BD00082E750EA410E14BF52EA430E6FF0000143
:102BE0004FF4001717EB430F8ABF194617EB410F3D
:102BF000B5E74CEA05510020B0BDD4F10104B4F1B1
:102C000020070FDAC4F12007520828BF42F0010262
:102C100010FA07F501FA07F7E1BF2A43E04038430D
:102C2000E1400FE0352C98DCC7F1200452EA400265
:102C300020FA07F218BF42F0010231FA07F0A14072
:102C40000A43002172F1004250F1000051EB0C01E7
:102C5000B0BD000010B5144600F002F8226010BDAF
:102C6000C1F30A5343B14A0012F5001F28D2A3F260
:102C7000FE32A1EB0251704750EA410C20D001F026
:102C8000004C31EA0C01B1FA81F204BFB0FA80F3D2
:102C9000D2180B3AB2F120032CBF00FA03F1914095
:102CA00041EA0C013EBFC2F1200C20FA0CF319439B
:102CB0009040524240F2FD33D21A01EB035170476B
:102CC000002270474FF4001C1CEB410F94BF1CEB1B
:102CD000430F09E041EA030C50EA4C0C52EA0C0C99
:102CE00003D2994208BF9042704714BF8B42824280
:102CF000704700004FF4001C1CEB410F94BF1CEB0D
:102D0000430F09E041EA030C50EA4C0C52EA0C0C68
:102D100003D28B4208BF8242704714BF994290424F
:102D200070470000124254D440F2FF7C1CEA115359
:102D30000FD0634531D09B1863453CBF01EB025176
:102D4000704701F0004141EA0C510020AFF30080D0
:102D5000704750EA410320D001F0004C91EA0C0189
:102D60001CD0B1FA81F30B3B9A420DD9D21A99408B
:102D700051EA0C01C3F1200C20FA0CFC614498408C
:102D8000531C40F2FF7CD7E7914041EA0C01C2F1AD
:102D9000200C20FA0CF3194390407047B0FA80F3EE
:102DA0001533202BE0D3202AEED3203A203B9A4241
:102DB00009D9D21A00FA03F141EA0C010020531C90
:102DC00040F2FF7CB8E700FA02F141EA0C01002072
:102DD0007047524240F2FF7C1CEA11530DD063450C
:102DE000DBD0B2EB030C3CBFA1EB025170470CF1FE
:102DF000010221EA035141F4801150EA410CCCD088
:102E000001F0004C352A27DC30B481EA0C01B2F124
:102E1000200309DAC2F12003044601FA03F5D04089
:102E20002843D1409C400CE0C3F12002450020FA29
:102E300003F418BF44F0010421FA03F091400C435D
:102E4000002174F1004550F1000051EB0C012442C7
:102E500030BC7FF47BAF70476146002076E700000E
:102E6000C1F30A5340F2FE329B1A14DDD3F1200362
:102E70004FEAE17208DDC90241EA505141F00040D9
:102E8000D84080185040704703F2E13010B1D2436F
:102E900082F000407047002070470000C11768B101
:102EA0004840401AB0FA80F29040D21CC907C2F5DF
:102EB000846241EA025202EBD021400570470000D3
:102EC00070B44FF0004591EA030F40F1BB816B40B5
:102ED000841A71EB030603D2001BB141121973412E
:102EE0004FF4001C1CEB410F34BF7CEB430442E069
:102EF0000C0DA4EB1356352E4FDC45EAC323DB0A39
:102F000045EAC121C912B6F120050DDD63FA05F6C7
:102F1000EB4086EA0305124218BF45F00105C018D0
:102F200051F100010CD213E062FA06F5F24055406F
:102F3000F3415A40B340F3405A408018594107D3F7
:102F400049085FEA30005FEA350528BF45F0010512
:102F500001F58011420875F1004250F1000041EB8B
:102F600004514E0016F5001F70BC38BF704700209A
:102F7000090D090570471CEB410F10D252EA4306B8
:102F80000BD0BCEB410F05D80C0DAB43661E342EA5
:102F9000B6DD02E0AB438018594170BC704770BC8D
:102FA00070470000F0B540F2FF7581EA030C0CF0A9
:102FB000004C15EA11541DBF15EA1357AC42AF423D
:102FC000E5E0BC41C1F31301C3F31303801A994137
:102FD00043F4801304D2641E4000494180185941D3
:102FE000C90241EA5051B1FBF3F603FB1611A2FBF3
:102FF0000675D7EBC020A94102D2761E8018594130
:10300000C90241EA5051B1FBF3FE03FB1E11A2FBC2
:103010000E75D7EBC020A94103D2AEF1010E801886
:103020005941890241EA9051760546EA8E2EB1FB5C
:10303000F3F603FB1611A2FB0675D7EB8020A9411E
:1030400002D2761E80185941C90241EA50514EEA17
:10305000060EB1FBF3F603FB1611A2FB0675D7EBC8
:10306000C020A94102D2761E80185941C90241EA06
:103070005051B1FBF3F703FB1711A2FB0735D3EB5C
:10308000C020A94167F100070CBF004247F00107CB
:1030900066F3D5274FEA1E31B80814F5806412DDB7
:1030A000BD0775F1004250EB0E5051EB045111F584
:1030B000801F5CBF41EA0C01F0BD4CF07F6141F024
:1030C000E0410020F0BDBD076D0840EA0E5041F41C
:1030D0008011D4F10104B4F120060ADAC4F120060B
:1030E0000200E04001FA06F3E1401843B240154304
:1030F0000EE0342C13DCC6F1200445EA40056D08CF
:1031000020FA06F2154321FA06F0A1400D430021F2
:1031100075F1004250F1000051EB0C01F0BD0020B0
:103120005FEA0C01F0BDCFB992185B41B3FA83F7A7
:1031300004BFB2FA82F6BF190B3FB7F120062FBFCA
:1031400002FA06F3BB40C7F1200622FA06F638BFA2
:103150003343BA401CB1E419641E33E77F4231F0B7
:103160000041B1FA81F404BFB0FA80F6A4190B3C17
:10317000B4F120062FBF00FA06F1A140C4F12006E9
:1031800020FA06F638BF3143A0403C1B1AE7AC4298
:103190001ABF05EA1357AF4212E050EA41061CBFBE
:1031A00052EA4306BFE750EA4107304661461CBF7A
:1031B00041EA0551F0BD52EA430C08BFC143F0BDDE
:1031C00000204FF4001616EB410F98BF16EB430F8B
:1031D00008BF16EB410F24BFC14305E016EB430FB8
:1031E0000CBF61464CEA0551F0BD0000400D491886
:1031F00040EA81200CD2490DA1F58061491C40F0C4
:10320000004005DBD1F11F0154BFC840C017704713
:1032100000207047014648B1B0FA80F18840C91CCF
:10322000C1F58461090501EBD0214005704700001C
:103230007047000070B44FF0004591EA030F7FF52E
:1032400047AE6B40841A71EB030604D26E40001B3C
:10325000B141121973414FF4001C1CEB410F34BFF4
:103260007CEB430682E00C0DA4EB1356362E7BDC80
:10327000012E45EAC32341DC43EA525312BFD20276
:1032800092025B08240545EAC12141EA5051D2EB84
:10329000C020994125D407D1B0FA80F610FA06F182
:1032A00062D00020203608E0B1FA81F6B140C6F1C4
:1032B000200220FA02F21143B0404FEAF474B4EB5A
:1032C000465434F001064FEA74040AD8D6F50016C5
:1032D000760D04F00044F04061FA06F25040F140EF
:1032E0004840C00A40EA415021F0004128BF5FEA4F
:1032F000500550F1000044EBD12135E0DB0A45EAEE
:10330000C121C90AB6F120050EDD42EA0242120CC3
:10331000C5F1200603FA06F6EB4042EA06056D42C7
:10332000984161F100010DE062FA06F5F240554066
:1033300063FA06FC82EA0C02F3405A406D42904167
:1033400061EB030111F4801F05D1641E620502D0F8
:103350006D004041494121F48011430875F100435B
:1033600050F1000041EB045170BC70471CEB410F61
:1033700015D223F0004352EA43060BD04FEA4C0C1F
:10338000BCEB410F04D80C0D661E342EB7DDEBE705
:10339000801A994150EA410608BF0021E4E708BFBE
:1033A0001CEB430F28BF6FF00001DDE7F8B5040008
:1033B00001D10120F2BD04F13C05687820B900215B
:1033C0002970204600F0ECFB00F054F800F040FDBE
:1033D0000146DFF8C002DFF8C032B1FBF0F220682E
:1033E00042606068984206D34FF4967042434FF4AF
:1033F0007A76B2FBF6F22768521C3A6266689E4201
:1034000008D27600B1FBF6F0C0F30B01042913D209
:10341000042011E0A06820B906EB4606B1FBF6F0E7
:1034200005E019225643B1FBF6F040F48040010557
:103430000CBF012040F400402168C861E269206AA5
:103440000243206802602169E068014320688160CE
:103450006169A06901432068C1602068016841F08A
:103460000101016000206860202068700020206356
:10347000A870F2BD242068702068016849084900DE
:10348000016070472DE9FC4700F028F900F0F6F8DC
:1034900043D100F01BF900283FD1387801283CD0F7
:1034A00000F0DAF8212000F0C5F800F0ADF940B1E5
:1034B0007868042802D1002139702AE00020387091
:1034C00029E000F039F8308D002829D000F0F2F81A
:1034D000C8B900F0E3F800F0F5F8308D401E3085F3
:1034E00031684A69530706D580B220B1706A421C20
:1034F000726200F018F800F0D8F80028E3D078687D
:10350000042808D102E07868042804D1306800F06B
:103510006CF9012002E0032000E00220BDE8F687FC
:1035200000F0E2F8FAE700780861708D411E7185BD
:10353000308D411E3185704700903068416900919F
:1035400080690090009970472DE9FC4700F0C6F8AB
:1035500000F094F863D100F0B9F800285FD1387812
:1035600001285CD000F078F8222000F063F800F029
:103570008FF940B17868042802D10021397046E003
:103580000020387041E0308D08B9009004E03168C7
:10359000012804D100F0C2F800F021F911E002285E
:1035A000086802D100F0DDF804E040F480600860B3
:1035B00000210091FFF7C1FF03E000F0B6F800F032
:1035C0007EF8308D00282DD0042818D2012804D18F
:1035D00000F0C2F80028F0D014E000F096F806D110
:1035E00000F023F8002810D100F0C6F8E5E700F05D
:1035F0001CF8002809D100F0D1F830B9F4E700F048
:10360000ABF830B17868202801D1032008E0012010
:1036100006E000F091F8D4D500F071F8CFE7022071
:10362000BDE8F68700F030F8FAE700224146304660
:1036300000F09EB978702A461020B87041460020EC
:103640007860C6F82490A6F82AA0DFF8CC00F062D3
:10365000708D3085304670470121397030680168BF
:10366000CA0703D4026842F00102026023463068B0
:103670000A9D016821F400610160704706F13C0772
:103680000446787820287047202078700020B87091
:103690003870704740420F00A1860100706A411CDB
:1036A00071623168007808617047224629463046C9
:1036B00000F0EFB922462946304600F0D0B9308DEF
:1036C000411E3185708D411E71857047009419230C
:1036D0000122DFF82C11304600F04AB90646884630
:1036E00091469A4600F0FEBB3068016841F40071D3
:1036F0000160202078700020B87038707047716ABF
:103700004A1C72620069087070470228DFF8F48072
:1037100000942B46704700000000FFFF086820F46B
:1037200080600860002100917047706A411C7162DE
:1037300031680A6902707047706A411C71623168B1
:103740000A690270308D411E3185708D411E718570
:10375000306841694A07704722462946304600F0E2
:10376000BFB920F4806008603068016841F40061EE
:1037700001600020009070473068016841F40071DA
:103780000160706A411C716231680A690270308D93
:10379000411E3185708D411E71857047306801680A
:1037A00021F4806101602B46706A411C71623168AE
:1037B0000A6902700022308D411E3185708D411ED4
:1037C000718500944146304600F0D2B800902068E0
:1037D0004169009182690092002200997047306827
:1037E00041690091826900920099016841F4007179
:1037F000016070472068016841F480710160704782
:103800000200100004000100F8B504460D46E06A0D
:1038100004281EBF01285349884216461F4602D17C
:10382000FFF7E8FF03E0206B122800F08AF800970A
:10383000334600F028F810BB2069B0F5804F04D162
:10384000216805F0FE050D610EE0E809216800F031
:10385000060040F0F00008613B463246434900F064
:103860007EF838B900F074F83B4632463E4900F025
:1038700076F828B1206C042801D10120F2BD032084
:10388000F2BD0096534600224FF0011120466FE032
:103890002DE9F84304460D46E06A216891460A681E
:1038A00042F480620A6004281EBF01282D49884224
:1038B0001E4602D1FFF79EFF03E0206B112800F0A7
:1038C00040F800964B46FFF7DEFF002836D120690E
:1038D000DFF89480B0F5804F05D1216845F00105EF
:1038E000EDB20D6122E0EF09216807F0060747F00D
:1038F000F000086133464A461C4900F030F80028C1
:1039000017D100F025F800F027F890B900904B4649
:10391000FFF75DFF016841F4807101600096FFF7D9
:10392000B3FF58B9206847F0F107076100F014F8B9
:1039300028B1206C042808BF012000D00320BDE876
:10394000F28304D12068036843F4807303607047F6
:103950002068EDB20561704733464A46414620462D
:103960003CE000000000FFFF020001000800010031
:103970002DE9F8430F46089C3D02064690469946BD
:103980002D0E3068012D1ED14069384080B2B9B289
:1039900088421ED0002040451DD119F1010FF0D002
:1039A000B9F1000F04D000F09DFA001B8145E8D268
:1039B00000203063202106F13C004170002181701D
:1039C0000170032008E08069384080B2B9B28842B3
:1039D000E0D10120DFE70020BDE8F2832DE9FC41C2
:1039E0000F463E02054614469846360E2868012EBC
:1039F00018D14169394089B2BAB2914218D04169AF
:103A00004A0517D5026842F4007202606FF48060C4
:103A10002968486105F13C0004224260002100F061
:103A200088F81AE08169394089B2BAB29142E6D188
:103A3000002012E014F1010FD8D02CB100F052FA9E
:103A4000A0EB08008442D1D200202863202105F198
:103A50003C004170002101700320BDE8F68170B583
:103A600005460C4616462868416908060FD42846C4
:103A700000F066F808B1012070BD14F1010FF2D01A
:103A800024B100F02FFA801B8442ECD21BE000200E
:103A900070BD70B505460C46164628684169480752
:103AA0000FD4284600F04CF808B1012070BD14F185
:103AB000010FF2D024B100F015FA801B8442ECD241
:103AC00001E0002070BD05F13C000022416841F09A
:103AD000200141602A63202141700270032070BDE3
:103AE00070B505460C461646286841694A061ED43C
:103AF0004169CA0611D424B100F0F4F9801B844254
:103B0000F2D205F13C002022416841F020014160E1
:103B1000427000210170032070BD6FF010014161FF
:103B200005F13C000021416000F003F870BD002069
:103B300070BD296320214170002101700120704770
:103B400001684A6953050DD56FF480634B6100F13C
:103B50003C0104224A6000220263202048700A705F
:103B6000012070470020704780B5594859490160CD
:103B70005949416000218160C1604FF48041016179
:103B8000002141618161C1610162FFF70FFC30B129
:103B9000BDE804405FF0420153A000F079BA01BDD6
:103BA00000684C49884200D0704780B586B04FF419
:103BB0000071019100F01FF80490059101A9474898
:103BC00000F086FA00F017F84FF480720490059127
:103BD000019201A9424800F07BFA00200090414880
:103BE000016841F400010160006800F400000090E9
:103BF000009807B000BD122001210290039103201C
:103C00000421704700683349884200D0704780B56E
:103C10003448016821F4000101604FF400712F481D
:103C200000F02FFBBDE804404FF480712C4800F0F9
:103C300028BBF3B581B004460A20009015461E4605
:103C4000234F012302AA21463846FFF71BFC01003F
:103C500007D10A20009033462A4621463846FFF70E
:103C600073FCFEBD2DE9FC4204461F460D469146FD
:103C7000781CFDF71BF906463A464946701C00F0D1
:103C80009FFB35700A2000907F1CBBB23246214654
:103C90000F48FFF7F7FB0446304600F097FB20463D
:103CA000BDE8F6821CB500208DF80000084C2046C7
:103CB000FFF7A8FF2046FFF773FF01236A4675212F
:103CC000D020FFF7B6FF9DF800006828EFD113BDA4
:103CD00004060020005C0040A086010000080240AD
:103CE0000000024040380240433A5C5573657273ED
:103CF0005C77616E6779756E7875616E5C4465732B
:103D00006B746F705C526F626F636F6E5C70726F1A
:103D10006772616D5C676C6F62616C20706F736954
:103D200074696F6E5C676C6F62616C706F736974DD
:103D3000696F6E5C5372635C6932632E63000000CE
:103D40002DE9F84304000F4677D04A4E306800F062
:103D50000F00B84202D200F072F86ED12068464DD2
:103D6000810712D5400703D5A86840F4E050A86049
:103D70002178080703D5A86840F46040A860A968C6
:103D8000A06821F0F0010143A9602078C1074CD55B
:103D90006068012802D129688A0305E0022818BF5B
:103DA000032803D129688A0103D446E02A689107D1
:103DB00043D5A968890840EA8100A86041F28939A1
:103DC00000F090F88046A868616800F00C00B0EB45
:103DD000810F2AD000F086F8A0EB08004845F2D306
:103DE000032020E02078410705D5A968E06821F488
:103DF000E0510143A9602078010706D5A868216930
:103E000020F4604040EAC100A86000F03FF8AA68D2
:103E10001A49C2F30312895C194AC8401060002095
:103E200000F0D6FA0020BDE8F283306800F00F0001
:103E30008742D7D200F003F8D4D00120F3E73770DF
:103E4000316801F00F01B94270470D4800687047B2
:103E50000B480C4A006813680B49C3F3822206E042
:103E60000748084A006813680749C3F34232895C6F
:103E7000C8407047003C0240003802401C65000802
:103E80005000002008380240A866000818B5124CFF
:103E9000606800F00C00042802D0082802D019E065
:103EA0000E4812BD00232268206841022068C0F33A
:103EB00088104CBF09490A4902F03F02A1FB0001EA
:103EC000FEF7DEFC2168C1F30141491C4900B0FB4B
:103ED000F1F012BD024812BD0438024000127A000F
:103EE0000024F40001480068704700BF6407002008
:103EF00080B500F081FA00F017F800F097FA00F0B2
:103F0000C5FA00F09DFB00F0B1FBFFF72DFE00F0BD
:103F1000E7FB00F09DFC00F025FD554901200860FD
:103F20005CA000F0FAFAFEE780B592B000200090A5
:103F30005048016841F0805101600021006800F0A4
:103F40008050009000984C4800910121026842F492
:103F5000804202604FF48032006800F4804000909C
:103F60000098069102200C904FF480010D910420DE
:103F70000E90A8210F910220109004210792119118
:103F800006A800F04DFE00B1FEE70F2101910220CE
:103F90000021029003914FF4A0504FF480510490FF
:103FA000059101A80521FFF7CBFE00B1FEE7FFF761
:103FB0004CFF4FF47A71B0FBF1F000F0DDFF04200C
:103FC00000F0EEFF002200214FF0FF3000F0ACFFC8
:103FD00013B000BD70B5264C4FF4FA724FF4FA716D
:103FE0002DED028B6068401C606090FBF2F201FBDB
:103FF000120088B0002804BF2568012D1FD11F4E74
:104000001F4D30681F4E00F0E7FFCDE9060195ED2A
:10401000008B1D4896ED000B00688DED048B8DED37
:10402000020B00F0D9FFCDE900011849086800F043
:10403000D3FF02464FEA010319A000F06EFA606850
:104040000A2290FBF2F20A2101FB1200002802BFB3
:104050002068012800F0C2FC60684FF6FD718842BC
:10406000A4BF0021616008B0BDEC028B70BD0000F0
:104070005807002040380240007000403C000020FB
:1040800020000020180000202C0000202800002024
:10409000FEE7000073746172742E2E2E0D0A00006C
:1040A00050323D2566202050343D25662020583D65
:1040B000256C662020593D256C6620436172416E57
:1040C000676C655369676D613D25660A00000000F5
:1040D0002DE9F84F4FF0000EAE4AAF4BDFF8BC822F
:1040E0004FF00F0906468A460121DAF8004001FA2E
:1040F0000EF10C408C4240F0BC80DAF80450022DE6
:1041000018BF122D4FEA8E0012D14FEADE0506EBE2
:10411000850C00F01C05DCF8207009FA05FB27EA85
:104120000B07DAF810B00BFA05F53D43CCF8205038
:104130004FEA4E0C032537689AF804B005FA0CF5DF
:10414000ED430BF0030B2F400BFA0CFB4BEA070778
:104150003760DAF80470012F18BF022F03D0112F37
:1041600018BF122F13D1B768DAF80CB02F400BFA32
:104170000CFB4BEA0707B760776827EA0101DAF81A
:104180000470C7F3001707FA0EF739437160F1683E
:104190000D40DAF8081001FA0CF12943F160DAF861
:1041A0000410C90065D50025009500F00C00D8F872
:1041B000001041F48041C8F8001009FA00F7D8F85F
:1041C000005005F48045009500994FEA9E0153F890
:1041D000215025EA0707724DAE4208BF002522D0C4
:1041E000704DAE4208BF01251DD06F4DAE4208BFD5
:1041F000022518D06D4DAE4208BF032513D06C4D7B
:10420000AE4208BF04250ED06A4DAE4208BF052558
:1042100009D0694DAE4208BF062504D0674DAE42B5
:104220000CBF0725082505FA00F0384343F82100A4
:10423000E0431168DAF804500140ED0348BF214320
:1042400011605168DAF804500140AD0348BF2143C2
:1042500051609168DAF804500140ED0248BF2143F3
:104260009160D1680140DAF80400800248BF214320
:10427000D1600EF1010EBEF10F0F7FF635AFBDE834
:10428000F18F2DE9F84F82460F46002641484449F8
:10429000414A00970F234FF00108009C08FA06FEE0
:1042A0000EEA040CF44570D10327740007FA04F4F5
:1042B000DAF80070E4432740CAF80070F7080AEB08
:1042C0008709B700D9F8205007F01C0B03FA0BFB45
:1042D00025EA0B05C9F8205007F00C07DAF808505A
:1042E0002540CAF80850DAF8045025EA0E05CAF845
:1042F00004504FEA960EDAF80C502C40CAF80C40E5
:1043000003FA07F452F82E5004EA05098A4508BF5B
:10431000002522D0234DAA4508BF01251DD0224DDE
:10432000AA4508BF022518D0204DAA4508BF03257D
:1043300013D01F4DAA4508BF04250ED01D4DAA4518
:1043400008BF052509D01C4DAA4508BF062504D085
:104350001A4DAA450CBF0725082505FA07F7B945E8
:1043600013D152F82E7027EA040442F82E406FEA67
:104370000C04076827400760476827404760876844
:1043800027408760C7683C40C460761C0F2E84D9E4
:10439000BDE8F18F003C014008380140443802403C
:1043A000000002400004024000080240000C0240ED
:1043B000001002400014024000180240001C02409D
:1043C00010B50446FEF708FA204610BDFCF7C9BE3A
:1043D00010B508490A6804464FF47A70B2FBF0F051
:1043E00000F0CAFD002221464FF0FF3000F09CFD96
:1043F000002010BD5000002080B50B48016841F43A
:1044000000710160026842F480620260016841F458
:1044100080710160032000F07AFD0020FFF7D8FFD3
:1044200000F0FEFD002002BD003C024081B00020F3
:1044300000901548016841F080010160026802F0B7
:1044400080020092002200990092036843F0040366
:104450000360016801F00401009100990092036873
:1044600043F001030360016801F00101009100992C
:104470000092036843F002030360006800F002004A
:104480000090009801B070473038024080B548482D
:104490004849C1614FF4E13101620021416281620A
:1044A000C1620C2101630021416381631C3000F073
:1044B00001FE30B1BDE804405FF0420144A0FFF7C7
:1044C000E7BD01BD00683B49884200D0704780B518
:1044D00086B00021384800910C21026842F4003275
:1044E00002600222006800F4003000900098019100
:1044F000012003900321072004910590029201A955
:104500002E48FFF7E5FD00220021262000F00CFDDB
:10451000262000F026FD07B000BD0EB418B50246F7
:10452000234C03AB652104F15C0001F07DF882B2FD
:104530004FF47A7304F15C0104F11C0000F0F6FD05
:1045400011BC5DF810FB0000F8B500681949184C63
:10455000884224D11A4E257ED6F8000032A700F0FA
:104560003BFD612D41EC100B04D153EC102B154891
:10457000154905E0622D12D153EC102B1148134957
:10458000FEF758FE01F06EF800EE100A86ED000A04
:1045900000F022FD02460B463846FFF7BEFF04F14D
:1045A000180104F11C00BDE8F840012200F017BE1C
:1045B0005400002000440040403802400000024007
:1045C000380000207B14AE47E17A843FE17A84BF53
:1045D000433A5C55736572735C77616E6779756E8B
:1045E0007875616E5C4465736B746F705C526F625A
:1045F0006F636F6E5C70726F6772616D5C676C6F1A
:1046000062616C20706F736974696F6E5C676C6F48
:1046100062616C706F736974696F6E5C5372635C16
:1046200075736172742E63007879696E7465727344
:10463000656374696F6E203D2025660D0A000000D9
:104640004FF0804030B5644C6BA520608BB000F01B
:104650002CF810B14B2100F01EF800F01FF810B13B
:10466000522100F018F80BB030BD00005B4830B5A7
:104670005B4C00BF60A520608BB000F016F810B155
:104680006C2100F008F800F009F810B1732100F077
:1046900002F80BB030BD2846FFF7FABC00200090AE
:1046A00001906946204601F011B800206060A060CA
:1046B00000214FF6FF70E06003910020206105911A
:1046C0000320029007910120049009910F20069089
:1046D00002A9012008900F200A90204601F024B87A
:1046E000404830B5404C00BF43A520608BB000204F
:1046F0006060A06000214FF6FF70E0600391002031
:1047000020610591032002900691012004900791F9
:10471000089009910A91204602A901F005F810B10C
:104720008D21FFF7B8FFFFF7B9FF10B19421FFF714
:10473000B2FF0BB030BD80B586B001682B482C4A63
:10474000B1F1804F10D100210591136843F00103AE
:1047500013600223116801F001010591032200F0AA
:1047600033F80121049111E01C4B994210D1002132
:104770000591136843F0020313600223116801F0EE
:1047800002010591C02200F01FF80493694617E06A
:104790001448814216D100200590116841F00401AF
:1047A0001160C021106800F00400059002220598F5
:1047B00000910020029003900192049269460D48F6
:1047C000FFF786FC07B000BD059900920021029119
:1047D0000391019370470000580600200004004038
:1047E0009406002000080040D0060020000002408F
:1047F0004038024000040240433A5C5573657273CE
:104800005C77616E6779756E7875616E5C4465730F
:104810006B746F705C526F626F636F6E5C70726FFF
:104820006772616D5C676C6F62616C20706F736939
:1048300074696F6E5C676C6F62616C706F736974C2
:10484000696F6E5C5372635C74696D2E6300000067
:1048500080B52948294901604FF4827141600021E7
:104860008160C160016141614FF400718161282163
:10487000C16100210162416281620A21C16201F0CD
:1048800021F830B1BDE804405FF045011FA0FFF7FB
:10489000FFBB01BD00681949884200D0704780B550
:1048A00086B00021164800910C21026842F4804233
:1048B00002600222006800F480400090009801919C
:1048C000002003900321052004910590029201A984
:1048D0000C48FFF7FDFB022000210290039103200A
:1048E00005214FF4005204900591019201A9064858
:1048F000FFF7EEFB07B000BDAC050020003800401C
:10490000403802400008024000040240433A5C552F
:10491000736572735C77616E6779756E7875616EB9
:104920005C4465736B746F705C526F626F636F6E23
:104930005C70726F6772616D5C676C6F62616C2036
:10494000706F736974696F6E5C676C6F62616C70B5
:104950006F736974696F6E5C5372635C7370692EF8
:1049600063000000F8B518219848994D994F00F060
:104970001FFF1821984800F01BFF1821974800F0EE
:1049800017FF974947F6FF700860C82495490860EB
:104990004FF4FA7697490860284601F03FF84FF443
:1049A000FA6001F013F93A4607F14801284600F091
:1049B000ECFFB7F90400D7ED110A10FB06F000F088
:1049C000F3F8B8EEC00A30EE200A87ED110A022093
:1049D00001F0FCF8641EE6D1F1BD0000F8B5804F8F
:1049E000814C7C4E2DED088B38682018FEF756FA66
:1049F0009FED7E8B00F0DFF800F0D2F841EC100B59
:104A000086ED040B47F6FF753D6000227A4B794F27
:104A1000FEF7C8FA00F026FEF062386824186442F7
:104A20002046FEF73BFA00F0C6F800F0B9F841EC7A
:104A3000100B86ED020B00226F4BFEF7B3FA00F06D
:104A400011FEB0623D60324606F14801604800F058
:104A50009CFFB6F90400D6ED110A4FF4FA7110FB71
:104A600001F000F0A1F89FED651AB8EEC00A80EEE3
:104A7000811A30EE410A00F0CEF8614A624BFEF72F
:104A800017F800F0EFFD00EE100AB5EE400AF1EE67
:104A900010FA10DD00F0A0FA0446306B0D4600F06D
:104AA0009BFA00F08CF822462B46FEF701F800F046
:104AB000D9FD00EE100AB5EE400AF1EE10FA10D55D
:104AC00000F0A9F80446706B0D4600F085FA00F07E
:104AD00076F822462B46FDF7EBFF00F0C3FD00EE13
:104AE000100A86ED100A96ED0F0AD6ED100A30EE88
:104AF00020AA86ED0FAA1AEE100A00F06DFA41EC1A
:104B00001B0B00F047F896ED029B96ED048BD6ED5B
:104B10000EAA53EC192B51EC100BFDF7C9FF0446FC
:104B20003AEE8A0A00F076F841EC100B01F060F8DA
:104B300051EC100B00F03FF822462B46FEF77AFBB3
:104B4000D6E90623FEF776FBC6E9060100F022F857
:104B500053EC182B51EC100BFDF7AAFF04463AEE6C
:104B6000CA0A00F057F841EC100B01F041F851EC83
:104B7000100B53EC192BFDF79BFF22462B46FEF73B
:104B800059FBD6E90823FEF755FBC6E90801BDEC41
:104B9000088BF1BDB0EE4B0AF0EE6B0A01F028B8BD
:104BA00000221A4BFEF7FEB9811300EB5140C013EF
:104BB00000EE100A704753EC182BFDF779BF024640
:104BC0000B4610481249FEF7EDB9000058060020C8
:104BD0000C0700200000002094060020D0060020D2
:104BE00024000040240400400180FFFF8FCB7D5053
:104BF000D0D4634024080040000024400000484313
:104C00008A815F69553855295AE0263F00409F4008
:104C10007A6A3F400D4610EE100A00F0DDB9000040
:104C20002DE9FC41040017D02078AD4DC10741D5D6
:104C3000A86800F00C00042807D0A86800F00C0059
:104C400008280BD16868410208D52968880331D546
:104C50006068002840F0B58001203FE16068B0F551
:104C6000803F06D0B0F5A02F296807D141F48021FC
:104C70002960286840F48030286006E021F4803103
:104C800029602A6822F480222A60606868B1FFF7F0
:104C900029F906462968880300F19380FFF722F975
:104CA000801B6528F6D3032018E1FFF71BF90646A1
:104CB0002868810340F18580FFF714F9801B65287F
:104CC000F6D3F0E7FFF70EF9C01B022840F2A680EA
:104CD000E9E7E06870B101213160FFF703F90746A9
:104CE0002868810700F1C180FFF7FCF8C01B02288B
:104CF000F6D9D8E73060FFF7F5F80746286881074E
:104D000062D5FFF7EFF8C01B0228F7D9CBE70860A0
:104D1000FFF7E8F80746686F810774D5FFF7E2F8F8
:104D2000C01B0228F7D9BEE70528286F06D140F03E
:104D300004002867286F40F0010005E040084000AB
:104D40002867286F20F00400286741F28937A0689F
:104D500068B1FFF7C7F88046286F810700F192809D
:104D6000FFF7C0F8A0EB0800B842F5D39BE7FFF7C8
:104D7000B9F88046286F810756D5FFF7B3F8A0EB46
:104D80000800B842F6D38EE7FFF7ACF8C01B022844
:104D900040F2878087E7FFF7A5F8001B022840F262
:104DA000988080E700203066FFF79CF8044628686A
:104DB000810140F19280FFF795F8001B0228F6D997
:104DC00071E72078474E81071BD5A86810F00C0FBB
:104DD00009D0A86800F00C0008287FF47AAF686852
:104DE00041023FF576AF2968880703D5E0680128BE
:104DF0007FF432AF2968206921F0F80141EAC0014F
:104E00002960217808070DD56069374900283FF4EB
:104E10007EAF01220A60FFF765F80746686F8107D9
:104E20007FF550AF217848072CD500200090296CE1
:104E3000DFF8B88041F080512964286C00F0805080
:104E400000900098D8F8001041F48071C8F8001064
:104E5000FFF748F80746D8F80000C1050DD4FFF762
:104E600041F8C01B0228F6D91DE72868216920F007
:104E7000F80040EAC1002860C3E7A06801287FF479
:104E800053AF57E7A06940B3A96801F00C010829A6
:104E90003FF4E2AE022885D100203066FFF722F809
:104EA0000746286881013FF56FAFE169206AA26A71
:104EB0000143606A520841EA8011521EE06A41EAE9
:104EC000024141EA0061696001213166FFF70AF899
:104ED0000446286881017FF55EAF0020BDE8F681B9
:104EE0000038024000004742800E474200700040F8
:104EF0000901020081B002D43048815405E03048F5
:104F000002F00F02104400F8041C01B070472D4A53
:104F100013684FF6FF0100020B4000F4E0601843F5
:104F2000294908431060704738B5264B1C68C4F304
:104F30000223C3F10704052C28BF04241D1D072DDF
:104F400034BF0023DB1E012505FA04F4641E214052
:104F5000994005FA03F35B1E1A401143BDE8344043
:104F6000C6E7010007D4012200F01F01174B8A4059
:104F7000400943F82020704710B5401EB0F1807FF3
:104F800001D3012010BD124C60600F214FF0FF30A3
:104F9000FFF7AEFF0022A26007202060002010BDB6
:104FA00004280B4904D1086840F0040008607047E9
:104FB0000A6822F004020A607047000000E400E082
:104FC00018ED00E00CED00E00000FA0500E100E063
:104FD00010E000E0FEF7FEBFC0F3C75181B1FF292A
:104FE00006D0C110400721F0E04101F16051704747
:104FF00041020CBF40F4E0016FF000410020704717
:1050000000F0004100020AD0B0FA80FC00FA0CF077
:1050100001F16051A1EB0C5101EBD021400570472B
:1050200080B50020009000222148416841F4804171
:105030004160416801F48041009100990092036849
:1050400043F080530360006800F0805000900098A7
:105050000320FFF75CFF002200216FF00B00FFF739
:1050600063FF002200216FF00A00FFF75DFF0022BE
:1050700000216FF00900FFF757FF002200216FF0B9
:105080000400FFF751FF002200216FF00300FFF73B
:105090004BFF002200216FF00100FFF745FFBDE844
:1050A0000840002200214FF0FF30FFF73DBF00BF56
:1050B0004038024038B5040001D1012032BD00F073
:1050C00022F808B900F023F800F013F800F024F8F3
:1050D000FFE7416100F001F832BD2068C16841F48A
:1050E0000051C1600020686020206870A870002016
:1050F0007047242068702068C16821F40051C160A5
:10510000204600F0CFB904F13805687870470021D7
:1051100029702046FFF7D6B92068016921F4904133
:1051200001612068416921F02A0170472DE9F843A7
:10513000054605F138070C4678782028164698462B
:105140003CD1002C14BF002E012038D03878012823
:1051500034D0012139702120002179607870FEF768
:10516000C1FEAE848146EE8403E0296814F8010B89
:105170004860E88C28B3E98C481EE8844B46A86850
:10518000CDF80080B0F5805F0DD100F024F870B943
:1051900020882968C0F3080048602869002814BFE7
:1051A000641CA41CE5E700F016F80028DDD00320FD
:1051B00005E0202078700020387000E00220BDE873
:1051C000F283CDF800804B460022402100F005F824
:1051D0000028EED0EBE7002280212846D6E030B54B
:1051E00000F138039C78202C1CD109B1140001D1A6
:1051F000012030BD1C78012C14D001251D70816266
:105200008285C28500215960222199700021197080
:1052100001684A6942F001024A610068C16841F4CC
:10522000907101E0022030BDC160002030BD4169B5
:1052300021F040014161606B704738B50446256834
:105240002968EA686B6911F00F0007D188065DD5FF
:1052500090065BD52046BDE83240DDE0D80702D499
:1052600012F4907F52D0C80705D5D00503D5E06B66
:1052700040F00100E063480705D5D80703D5E06B8F
:1052800040F00200E063880705D5D80703D5E06B3E
:1052900040F00400E063080705D5D80703D5E06BAC
:1052A00040F00800E063E06B00286ED0890604D56A
:1052B000900644BF204600F0AFF820684069E16BDB
:1052C0000A0701D440061BD5204600F091F820685B
:1052D00041694A060FD5FFF7AAFF60B10FF22D1101
:1052E0000165606B00F08AFC00284ED0606B016D98
:1052F000BDE8344008472046BDE8324000F090BC8D
:10530000204600F08DFC0020E06331BD08062CD55E
:1053100010062AD594F83900212836D1A168206AD0
:10532000B1F5805F0DD10188C1F308016960206982
:1053300018B9216A881C206207E0206A411C21629A
:1053400003E0411C216200786860E08C401EE0842C
:1053500080B2D0B92068C16821F08001C1602068A6
:10536000C16841F04001C16031BD48060DD550060D
:105370000BD5E86820F04000E860202184F839105F
:105380002046BDE8324000F04CBC31BD2DE9F04173
:10539000069C05460E4690461F4628680168314027
:1053A000B1420CBF01200020404517D114F1010F7C
:1053B000F3D024B1FEF796FDC01B8442EDD22868DD
:1053C000C16821F4D07100F00CF805F138002021FB
:1053D0004170817000210170032000E00020BDE8D1
:1053E000F081C160286841694908490041617047FE
:1053F0000168CA6822F49072CA6001684A6952085A
:1054000052004A61202180F83A107047806B0021D9
:10541000C185C18400F004BC80B590F83A102229FF
:105420003ED18268B2F5805F14D1826A016941B9C8
:1054300003685968C1F308011180826A911C816276
:1054400018E001684B6803F0FF031380816A4A1C6F
:1054500082620FE001690029816A04D14A1C8262DC
:105460000268536805E04A1C82620268536803F0D0
:105470007F030B70C18D491EC18589B271B9016866
:10548000CA6822F49072CA6001684A6952085200E0
:105490004A61202180F83A10FFF756F8002002BD3B
:1054A000022002BD2DE9F0470446642521680A69FF
:1054B000E06822F4405202430A611926CA6848484B
:1054C0000240A06802432069024360690243E06928
:1054D0000243CA604A69A06922F4407202434A61E9
:1054E000E3694048404AB3F5004F3BD1914218BFB1
:1054F000814210D1FEF7B4FC0746FEF7B1FC8046AE
:10550000FEF7AEFC8146FEF7ABFC06FB09F98246CE
:10551000FEF7A6FC0FE0FEF79BFC0746FEF798FCA3
:105520008046FEF795FC8146FEF792FC06FB09F9E2
:105530008246FEF78DFC6168490000F057F8DB00F9
:105540003233B3FBF5F35B00B2FBF5F203F4F8730F
:1055500000F05AF8ED0032356420B5FBF0F000F0B1
:10556000070037E0914218BF81420ED1FEF778FC68
:105570000746FEF775FC8046FEF772FC8146FEF793
:105580006FFC8246FEF76CFC0DE0FEF761FC0746FF
:10559000FEF75EFC8046FEF75BFC8146FEF758FC9A
:1055A0008246FEF755FC06FB09F96168890000F0A8
:1055B0001DF81B013233B3FBF5F3B2FBF5F203F038
:1055C000F00300F021F82D0132356420B5FBF0F036
:1055D00000F00F002168C3188B60BDE8F087000061
:1055E000F369FFFF00140140001001407743B7FB4F
:1055F000F1F206FB08F7B7FBF1F3B9FBF1F7B7FBE4
:10560000F5F705FB1733704703EB021306FB0AF7A8
:105610004643B7FBF1F2B6FBF1F06421B0FBF1F0C9
:1056200005FB10257047000008B584B000230393E4
:1056300000290EBF01930190491E0291009301A918
:1056400004AB074878441830FCF73AF8019909B1DF
:1056500000220A70002858BF039805B000BD00BFA3
:10566000F7CFFFFF01F000428B1AA3F16051B1F5B3
:10567000801F0ADBB1F17F6F1FD242EAC102C10075
:1056800071F1004142EB507070470B15C3F10903F3
:10569000212B10D2890241EA905180020128494110
:1056A00041F0004121FA03F0C3F12003994071F168
:1056B000004150417047100070476FF0000013EB3D
:1056C000103F5CBF000E42EAC050704730B500F199
:1056D00038031A78012A01D1022030BD01241C7040
:1056E00002225A700268546824F0700454600468FE
:1056F00065680A68154365600268946824F0800450
:10570000946002689468486804439460012058706B
:105710000020187030BD000000212970204670471D
:1057200004F1380568787047F8B504000E4601D1D9
:105730000120F2BDFFF7F4FF18B9FFF7EDFFFEF708
:10574000FAFF0220687020688168C908C90081607A
:10575000211D206800F048F82168DFF888008A6879
:105760008F690B6A0740B0680743B06947EA0027B2
:10577000DFF804010740F0680743F06947EA0027B3
:10578000306947EA0017306A47EA0037706823F04B
:10579000AA030343706943EA0013306802438A6036
:1057A00020688761012021680B6268700020F2BDCB
:1057B00010B5044609B1042901D1012203E000F02B
:1057C0000CF801220421206800F058F820680168D4
:1057D00041F001010160002010BD2068012200217C
:1057E00000F04CB8FCFCFFFFF0B5294C0568294BD4
:1057F000294E2A4FDFF8A8C0A04218BFB0F1804F51
:1058000007D0604518BFB84203D0B04218BF9842D5
:105810000DD14A6825F070051543A04218BFB0F1BC
:10582000804F17D060451CBFB842B04212D098429A
:105830001CBF1C4A90420DD01B4A90421CBF1B4A01
:10584000904207D01A4A90421FBF1A4A90421A4A01
:10585000904203D1CA6825F4407515430560A04203
:105860008A68C2620A68826212BF9842096901634B
:1058700001214161F0BD00000303FFFF10B5036A81
:1058800001248C40A343036202FA01F1036A15E08C
:105890000000014000040140000C004000080040EE
:1058A0000004004000400140004401400048014025
:1058B00000180040001C0040002000401943016215
:1058C00010BD000038B5040001D1012032BD002018
:1058D000A06204F15005687820B9002129702046A3
:1058E000FEF7D8FF0220687000F028F86268A06810
:1058F000A1690243E06802432069024360690243F0
:1059000001F40071E0690A430243206A0243A06A7D
:10591000024320680260A169606A090C01F0040179
:105920000143206841602068C16921F40061C161C0
:105930000020686001206870002032BD2068016886
:1059400021F040010160704734B50446207D256890
:1059500001236A46A847E17D88421CBF204600F02B
:1059600001F831BD10B50446208B401C208380B265
:10597000152803DBA06880470020208310BDC27D6E
:10598000914218BFFFF7EEBF7047FEB504460E46C2
:105990001546207D676806236A463B21B8470146C5
:1059A0002046FFF7ECFF00F029F83180062300F0D5
:1059B0001EF871806A4600F013F8B180207D666899
:1059C0004321B04701462046FFF7D9FF00F016F803
:1059D000298000F00CF8698000F002F8A980F7BD7A
:1059E0009DF804009DF8051041EA002170479DF8DC
:1059F00002009DF8031041EA002170479DF8000065
:105A00009DF8011041EA002170474FF47A7100229D
:105A1000484300E0521C8242FCD3704770B52DED24
:105A2000068B82B0044601208DF80000D021564834
:105A300060A56060217518215448206061750021BF
:105A40005348E0609FED4B8A0020E075DFED4A8A05
:105A50005048A0609FED499A4F482061DFED489A79
:105A60004E48E06141709FED47AA012181700820F6
:105A7000E16908700DE084F82000A07D712818BF4E
:105A8000702818BF682871D0A06880472846FEF7A4
:105A900044FDE1683220884700226B2100F087F83E
:105AA0000022192100F083F802221A2100F07FF869
:105AB000E06902781B2100F07AF8E069427880788A
:105AC00002431C2100F073F8E06980ED03AA022272
:105AD000372100F06CF8E16832208847012000F09F
